{
  "contractName": "Callcounter",
  "abi": [
    {
      "constant": true,
      "inputs": [],
      "name": "count",
      "outputs": [
        {
          "internalType": "uint256",
          "name": "",
          "type": "uint256"
        }
      ],
      "payable": false,
      "stateMutability": "view",
      "type": "function"
    },
    {
      "constant": false,
      "inputs": [
        {
          "internalType": "address",
          "name": "addr",
          "type": "address"
        }
      ],
      "name": "CallByAddr",
      "outputs": [
        {
          "internalType": "uint256",
          "name": "",
          "type": "uint256"
        }
      ],
      "payable": false,
      "stateMutability": "nonpayable",
      "type": "function"
    }
  ],
  "bytecode": "0x6080604052601460005534801561001557600080fd5b50610184806100256000396000f3fe608060405234801561001057600080fd5b50600436106100365760003560e01c806306661abd1461003b5780635c46c75c14610059575b600080fd5b6100436100b1565b6040518082815260200191505060405180910390f35b61009b6004803603602081101561006f57600080fd5b81019080803573ffffffffffffffffffffffffffffffffffffffff1690602001909291905050506100b7565b6040518082815260200191505060405180910390f35b60005481565b60008173ffffffffffffffffffffffffffffffffffffffff1663812600df60026040518263ffffffff1660e01b815260040180828152602001915050602060405180830381600087803b15801561010d57600080fd5b505af1158015610121573d6000803e3d6000fd5b505050506040513d602081101561013757600080fd5b8101908080519060200190929190505050905091905056fea265627a7a723158204fd98e8c0e3cbedf65ec56d4f28231dd4ecfd1a9ed5c406705596560dd141fe164736f6c63430005100032",
  "source": "pragma solidity >=0.4.21 <0.7.0;\n\nimport \"./Counter.sol\";\n\ncontract Callcounter {\n\n    uint public count = 20;\n    \n    function CallByAddr(address addr) public returns (uint){\n        return Counter(addr).inc(2);\n    }\n\n\n}\n",
  "sourcePath": "/home/zmr/YQL_AWS/contracts/Callcounter.sol",
  "compiler": {
    "name": "solc",
    "version": "0.5.16+commit.9c3226ce.Emscripten.clang"
  },
  "schemaVersion": "3.0.23",
  "updatedAt": "2020-06-05T05:18:09.722Z",
  "devdoc": {
    "methods": {}
  },
  "userdoc": {
    "methods": {}
  }
}