{
  "contractName": "Counter",
  "abi": [
    {
      "constant": false,
      "inputs": [
        {
          "internalType": "uint256",
          "name": "num",
          "type": "uint256"
        }
      ],
      "name": "setup",
      "outputs": [],
      "payable": false,
      "stateMutability": "nonpayable",
      "type": "function"
    },
    {
      "constant": true,
      "inputs": [
        {
          "internalType": "uint256",
          "name": "index",
          "type": "uint256"
        }
      ],
      "name": "AWS",
      "outputs": [
        {
          "internalType": "uint256",
          "name": "",
          "type": "uint256"
        }
      ],
      "payable": false,
      "stateMutability": "view",
      "type": "function"
    }
  ],
  "bytecode": "0x60806040526040518060200160405280600060ff16815250600090600161002792919061005e565b506040518060200160405280600060ff1681525060dc90600161004b92919061005e565b5034801561005857600080fd5b506100c8565b8260dc8101928215610092579160200282015b82811115610091578251829060ff16905591602001919060010190610071565b5b50905061009f91906100a3565b5090565b6100c591905b808211156100c15760008160009055506001016100a9565b5090565b90565b6101e0806100d76000396000f3fe608060405234801561001057600080fd5b50600436106100365760003560e01c806335d3e50b1461003b5780634313b9e51461007d575b600080fd5b6100676004803603602081101561005157600080fd5b81019080803590602001909291905050506100ab565b6040518082815260200191505060405180910390f35b6100a96004803603602081101561009357600080fd5b8101908080359060200190929190505050610104565b005b6000806000905060008090505b838110156100fa5760dc8160dc81106100cd57fe5b015460008260dc81106100dc57fe5b015414156100ed5781806001019250505b80806001019150506100b8565b5080915050919050565b60008090505b818110156101a757444260405160200180838152602001828152602001925050506040516020818303038152906040528051906020012060001c60008260dc811061015157fe5b0181905550444260405160200180838152602001828152602001925050506040516020818303038152906040528051906020012060001c60dc8260dc811061019557fe5b0181905550808060010191505061010a565b505056fea265627a7a723158207a4f9de69bf632e3ff4f28fe7d27e4ea93e5cd3c0a6310207f6df37681dc1f7d64736f6c63430005100032",
  "source": "pragma solidity >=0.4.21 <0.7.0;\n\ncontract Counter {   \n    \n    uint [220] T1 = [0];\n    uint [220] T2 = [0];\n\n    function setup(uint num) public{\n        for(uint i = 0;i < num;i++){\n            T1[i] = uint(keccak256(abi.encodePacked(block.difficulty,now)));\n            T2[i] = uint(keccak256(abi.encodePacked(block.difficulty,now)));\n        }\n    }\n\n    function AWS(uint index) public view returns (uint){\n        uint co = 0;    \n        for(uint i = 0 ;i < index; i++){\n            if(T1[i] == T2[i]){\n                co++;\n            }\n        }\n        return co;\n    }\n    \n\n}\n",
  "sourcePath": "/home/zmr/YQL_AWS/contracts/Counter.sol",
  "compiler": {
    "name": "solc",
    "version": "0.5.16+commit.9c3226ce.Emscripten.clang"
  },
  "schemaVersion": "3.0.23",
  "updatedAt": "2020-06-08T02:04:43.480Z",
  "networkType": "ethereum",
  "devdoc": {
    "methods": {}
  },
  "userdoc": {
    "methods": {}
  }
}