{
  "contractName": "DCCSC",
  "abi": [
    {
      "inputs": [],
      "stateMutability": "payable",
      "type": "constructor",
      "payable": true
    },
    {
      "stateMutability": "payable",
      "type": "fallback",
      "payable": true
    },
    {
      "inputs": [],
      "name": "Datain",
      "outputs": [
        {
          "internalType": "string",
          "name": "",
          "type": "string"
        }
      ],
      "stateMutability": "view",
      "type": "function",
      "constant": true
    },
    {
      "inputs": [],
      "name": "Dataout",
      "outputs": [
        {
          "internalType": "string",
          "name": "",
          "type": "string"
        }
      ],
      "stateMutability": "view",
      "type": "function",
      "constant": true
    },
    {
      "inputs": [],
      "name": "M",
      "outputs": [
        {
          "internalType": "int256",
          "name": "",
          "type": "int256"
        }
      ],
      "stateMutability": "view",
      "type": "function",
      "constant": true
    },
    {
      "inputs": [],
      "name": "Trust",
      "outputs": [
        {
          "internalType": "int256",
          "name": "",
          "type": "int256"
        }
      ],
      "stateMutability": "view",
      "type": "function",
      "constant": true
    },
    {
      "inputs": [],
      "name": "Ucsc",
      "outputs": [
        {
          "internalType": "address payable",
          "name": "",
          "type": "address"
        }
      ],
      "stateMutability": "view",
      "type": "function",
      "constant": true
    },
    {
      "inputs": [],
      "name": "owner",
      "outputs": [
        {
          "internalType": "address payable",
          "name": "",
          "type": "address"
        }
      ],
      "stateMutability": "view",
      "type": "function",
      "constant": true
    },
    {
      "inputs": [],
      "name": "owner_ucsc",
      "outputs": [
        {
          "internalType": "address payable",
          "name": "",
          "type": "address"
        }
      ],
      "stateMutability": "view",
      "type": "function",
      "constant": true
    },
    {
      "inputs": [],
      "name": "rewardt",
      "outputs": [
        {
          "internalType": "int256",
          "name": "",
          "type": "int256"
        }
      ],
      "stateMutability": "view",
      "type": "function",
      "constant": true
    },
    {
      "inputs": [],
      "name": "skill",
      "outputs": [
        {
          "internalType": "uint256",
          "name": "",
          "type": "uint256"
        }
      ],
      "stateMutability": "view",
      "type": "function",
      "constant": true
    },
    {
      "inputs": [],
      "name": "state",
      "outputs": [
        {
          "internalType": "uint256",
          "name": "",
          "type": "uint256"
        }
      ],
      "stateMutability": "view",
      "type": "function",
      "constant": true
    },
    {
      "inputs": [],
      "name": "tcsc",
      "outputs": [
        {
          "internalType": "address payable",
          "name": "",
          "type": "address"
        }
      ],
      "stateMutability": "view",
      "type": "function",
      "constant": true
    },
    {
      "inputs": [],
      "name": "test",
      "outputs": [
        {
          "internalType": "uint256",
          "name": "",
          "type": "uint256"
        }
      ],
      "stateMutability": "view",
      "type": "function",
      "constant": true
    },
    {
      "inputs": [],
      "name": "testaddr",
      "outputs": [
        {
          "internalType": "address payable",
          "name": "",
          "type": "address"
        }
      ],
      "stateMutability": "view",
      "type": "function",
      "constant": true
    },
    {
      "inputs": [],
      "name": "thisdccsc",
      "outputs": [
        {
          "internalType": "address payable",
          "name": "",
          "type": "address"
        }
      ],
      "stateMutability": "view",
      "type": "function",
      "constant": true
    },
    {
      "inputs": [],
      "name": "timedll",
      "outputs": [
        {
          "internalType": "uint256",
          "name": "",
          "type": "uint256"
        }
      ],
      "stateMutability": "view",
      "type": "function",
      "constant": true
    },
    {
      "inputs": [],
      "name": "timepdll",
      "outputs": [
        {
          "internalType": "uint256",
          "name": "",
          "type": "uint256"
        }
      ],
      "stateMutability": "view",
      "type": "function",
      "constant": true
    },
    {
      "inputs": [
        {
          "internalType": "address payable",
          "name": "addrtcsc",
          "type": "address"
        },
        {
          "internalType": "address payable",
          "name": "addrucsc",
          "type": "address"
        }
      ],
      "name": "set_info",
      "outputs": [
        {
          "internalType": "uint256",
          "name": "",
          "type": "uint256"
        }
      ],
      "stateMutability": "nonpayable",
      "type": "function"
    },
    {
      "inputs": [
        {
          "internalType": "address payable",
          "name": "ucsc",
          "type": "address"
        }
      ],
      "name": "Getwork_edge",
      "outputs": [
        {
          "internalType": "uint256",
          "name": "",
          "type": "uint256"
        }
      ],
      "stateMutability": "nonpayable",
      "type": "function"
    },
    {
      "inputs": [],
      "name": "get_rewardt",
      "outputs": [
        {
          "internalType": "int256",
          "name": "",
          "type": "int256"
        }
      ],
      "stateMutability": "nonpayable",
      "type": "function"
    },
    {
      "inputs": [],
      "name": "get_rewardc",
      "outputs": [
        {
          "internalType": "int256",
          "name": "",
          "type": "int256"
        }
      ],
      "stateMutability": "nonpayable",
      "type": "function"
    },
    {
      "inputs": [],
      "name": "get_ucscaddr",
      "outputs": [
        {
          "internalType": "address",
          "name": "",
          "type": "address"
        }
      ],
      "stateMutability": "nonpayable",
      "type": "function"
    },
    {
      "inputs": [],
      "name": "get_oucscaddr",
      "outputs": [
        {
          "internalType": "address",
          "name": "",
          "type": "address"
        }
      ],
      "stateMutability": "nonpayable",
      "type": "function"
    }
  ],
  "bytecode": "0x60806040526000600781905550601e600881905550601e6009819055506008600a81905550600c600d8190555033600160006101000a81548173ffffffffffffffffffffffffffffffffffffffff021916908373ffffffffffffffffffffffffffffffffffffffff160217905550306000806101000a81548173ffffffffffffffffffffffffffffffffffffffff021916908373ffffffffffffffffffffffffffffffffffffffff1602179055506112a7806100bc6000396000f3fe6080604052600436106101395760003560e01c80638086a556116100ab578063daadc3711161006f578063daadc37114610619578063decc68c714610644578063dece6031146106d4578063e42d7ba9146106ff578063f8a8fd6d1461072a578063ff2c6544146107555761013a565b80638086a556146104be5780638da5cb5b146104e95780639f72101414610540578063ba1d423c14610597578063c19d93fb146105ee5761013a565b806333a81643116100fd57806333a816431461032a57806336bebcd01461038f57806356ca9ae5146103ba578063693f917e146104115780636b34c2951461043c5780636fcb6dc6146104935761013a565b8063164c9bf01461013c578063258de43c1461016757806328d2d2b2146101be5780632cd209a7146102435780632dc9354d1461029a5761013a565b5b005b34801561014857600080fd5b506101516107ac565b6040518082815260200191505060405180910390f35b34801561017357600080fd5b5061017c6107b2565b604051808273ffffffffffffffffffffffffffffffffffffffff1673ffffffffffffffffffffffffffffffffffffffff16815260200191505060405180910390f35b3480156101ca57600080fd5b5061022d600480360360408110156101e157600080fd5b81019080803573ffffffffffffffffffffffffffffffffffffffff169060200190929190803573ffffffffffffffffffffffffffffffffffffffff1690602001909291905050506107d8565b6040518082815260200191505060405180910390f35b34801561024f57600080fd5b50610258610c26565b604051808273ffffffffffffffffffffffffffffffffffffffff1673ffffffffffffffffffffffffffffffffffffffff16815260200191505060405180910390f35b3480156102a657600080fd5b506102af610c4b565b6040518080602001828103825283818151815260200191508051906020019080838360005b838110156102ef5780820151818401526020810190506102d4565b50505050905090810190601f16801561031c5780820380516001836020036101000a031916815260200191505b509250505060405180910390f35b34801561033657600080fd5b506103796004803603602081101561034d57600080fd5b81019080803573ffffffffffffffffffffffffffffffffffffffff169060200190929190505050610ce9565b6040518082815260200191505060405180910390f35b34801561039b57600080fd5b506103a4611004565b6040518082815260200191505060405180910390f35b3480156103c657600080fd5b506103cf61100e565b604051808273ffffffffffffffffffffffffffffffffffffffff1673ffffffffffffffffffffffffffffffffffffffff16815260200191505060405180910390f35b34801561041d57600080fd5b50610426611034565b6040518082815260200191505060405180910390f35b34801561044857600080fd5b5061045161103a565b604051808273ffffffffffffffffffffffffffffffffffffffff1673ffffffffffffffffffffffffffffffffffffffff16815260200191505060405180910390f35b34801561049f57600080fd5b506104a8611060565b6040518082815260200191505060405180910390f35b3480156104ca57600080fd5b506104d3611066565b6040518082815260200191505060405180910390f35b3480156104f557600080fd5b506104fe61106c565b604051808273ffffffffffffffffffffffffffffffffffffffff1673ffffffffffffffffffffffffffffffffffffffff16815260200191505060405180910390f35b34801561054c57600080fd5b50610555611092565b604051808273ffffffffffffffffffffffffffffffffffffffff1673ffffffffffffffffffffffffffffffffffffffff16815260200191505060405180910390f35b3480156105a357600080fd5b506105ac6110b8565b604051808273ffffffffffffffffffffffffffffffffffffffff1673ffffffffffffffffffffffffffffffffffffffff16815260200191505060405180910390f35b3480156105fa57600080fd5b506106036110e2565b6040518082815260200191505060405180910390f35b34801561062557600080fd5b5061062e6110e8565b6040518082815260200191505060405180910390f35b34801561065057600080fd5b506106596110f2565b6040518080602001828103825283818151815260200191508051906020019080838360005b8381101561069957808201518184015260208101905061067e565b50505050905090810190601f1680156106c65780820380516001836020036101000a031916815260200191505b509250505060405180910390f35b3480156106e057600080fd5b506106e9611190565b6040518082815260200191505060405180910390f35b34801561070b57600080fd5b50610714611196565b6040518082815260200191505060405180910390f35b34801561073657600080fd5b5061073f61119c565b6040518082815260200191505060405180910390f35b34801561076157600080fd5b5061076a6111a2565b604051808273ffffffffffffffffffffffffffffffffffffffff1673ffffffffffffffffffffffffffffffffffffffff16815260200191505060405180910390f35b60095481565b600f60009054906101000a900473ffffffffffffffffffffffffffffffffffffffff1681565b600082600660006101000a81548173ffffffffffffffffffffffffffffffffffffffff021916908373ffffffffffffffffffffffffffffffffffffffff1602179055508273ffffffffffffffffffffffffffffffffffffffff16630c747b5e6040518163ffffffff1660e01b8152600401600060405180830381600087803b15801561086357600080fd5b505af1158015610877573d6000803e3d6000fd5b505050506040513d6000823e3d601f19601f8201168201806040525060208110156108a157600080fd5b81019080805160405193929190846401000000008211156108c157600080fd5b838201915060208201858111156108d757600080fd5b82518660018202830111640100000000821117156108f457600080fd5b8083526020830192505050908051906020019080838360005b8381101561092857808201518184015260208101905061090d565b50505050905090810190601f1680156109555780820380516001836020036101000a031916815260200191505b50604052505050600290805190602001906109719291906111cc565b508273ffffffffffffffffffffffffffffffffffffffff16630e651f196040518163ffffffff1660e01b8152600401600060405180830381600087803b1580156109ba57600080fd5b505af11580156109ce573d6000803e3d6000fd5b505050506040513d6000823e3d601f19601f8201168201806040525060208110156109f857600080fd5b8101908080516040519392919084640100000000821115610a1857600080fd5b83820191506020820185811115610a2e57600080fd5b8251866001820283011164010000000082111715610a4b57600080fd5b8083526020830192505050908051906020019080838360005b83811015610a7f578082015181840152602081019050610a64565b50505050905090810190601f168015610aac5780820380516001836020036101000a031916815260200191505b5060405250505060039080519060200190610ac89291906111cc565b508273ffffffffffffffffffffffffffffffffffffffff16633e8f975b6040518163ffffffff1660e01b8152600401602060405180830381600087803b158015610b1157600080fd5b505af1158015610b25573d6000803e3d6000fd5b505050506040513d6020811015610b3b57600080fd5b8101908080519060200190929190505050600b819055508273ffffffffffffffffffffffffffffffffffffffff1663da932b916040518163ffffffff1660e01b8152600401602060405180830381600087803b158015610b9a57600080fd5b505af1158015610bae573d6000803e3d6000fd5b505050506040513d6020811015610bc457600080fd5b8101908080519060200190929190505050600c8190555081600460006101000a81548173ffffffffffffffffffffffffffffffffffffffff021916908373ffffffffffffffffffffffffffffffffffffffff1602179055506000905092915050565b6000809054906101000a900473ffffffffffffffffffffffffffffffffffffffff1681565b60038054600181600116156101000203166002900480601f016020809104026020016040519081016040528092919081815260200182805460018160011615610100020316600290048015610ce15780601f10610cb657610100808354040283529160200191610ce1565b820191906000526020600020905b815481529060010190602001808311610cc457829003601f168201915b505050505081565b600081600f60006101000a81548173ffffffffffffffffffffffffffffffffffffffff021916908373ffffffffffffffffffffffffffffffffffffffff1602179055506000600f60009054906101000a900473ffffffffffffffffffffffffffffffffffffffff1673ffffffffffffffffffffffffffffffffffffffff166396db3b0a6040518163ffffffff1660e01b8152600401602060405180830381600087803b158015610d9857600080fd5b505af1158015610dac573d6000803e3d6000fd5b505050506040513d6020811015610dc257600080fd5b810190808051906020019092919050505090506000600f60009054906101000a900473ffffffffffffffffffffffffffffffffffffffff1673ffffffffffffffffffffffffffffffffffffffff1663634129ee6040518163ffffffff1660e01b8152600401602060405180830381600087803b158015610e4157600080fd5b505af1158015610e55573d6000803e3d6000fd5b505050506040513d6020811015610e6b57600080fd5b810190808051906020019092919050505090506008548210158015610e9257506009548112155b15610ff957600f60009054906101000a900473ffffffffffffffffffffffffffffffffffffffff16600560006101000a81548173ffffffffffffffffffffffffffffffffffffffff021916908373ffffffffffffffffffffffffffffffffffffffff160217905550600460009054906101000a900473ffffffffffffffffffffffffffffffffffffffff1673ffffffffffffffffffffffffffffffffffffffff166331ba64936000809054906101000a900473ffffffffffffffffffffffffffffffffffffffff166040518263ffffffff1660e01b8152600401808273ffffffffffffffffffffffffffffffffffffffff1673ffffffffffffffffffffffffffffffffffffffff168152602001915050602060405180830381600087803b158015610fbc57600080fd5b505af1158015610fd0573d6000803e3d6000fd5b505050506040513d6020811015610fe657600080fd5b8101908080519060200190929190505050505b600092505050919050565b6000600a54905090565b600460009054906101000a900473ffffffffffffffffffffffffffffffffffffffff1681565b600a5481565b600660009054906101000a900473ffffffffffffffffffffffffffffffffffffffff1681565b60085481565b600b5481565b600160009054906101000a900473ffffffffffffffffffffffffffffffffffffffff1681565b600560009054906101000a900473ffffffffffffffffffffffffffffffffffffffff1681565b6000600560009054906101000a900473ffffffffffffffffffffffffffffffffffffffff16905090565b60075481565b6000600d54905090565b60028054600181600116156101000203166002900480601f0160208091040260200160405190810160405280929190818152602001828054600181600116156101000203166002900480156111885780601f1061115d57610100808354040283529160200191611188565b820191906000526020600020905b81548152906001019060200180831161116b57829003601f168201915b505050505081565b600d5481565b600c5481565b600e5481565b6000600460009054906101000a900473ffffffffffffffffffffffffffffffffffffffff16905090565b828054600181600116156101000203166002900490600052602060002090601f016020900481019282601f1061120d57805160ff191683800117855561123b565b8280016001018555821561123b579182015b8281111561123a57825182559160200191906001019061121f565b5b509050611248919061124c565b5090565b61126e91905b8082111561126a576000816000905550600101611252565b5090565b9056fea264697066735822122011efb8bd39d8dff99a45f5dea3d3537f60445c0ab35906e4afe836da0c5cb6f464736f6c63430006070033",
  "immutableReferences": {},
  "source": "pragma solidity >=0.4.0 <0.7.0;\n\nimport './UCSC.sol';\nimport './TCSC.sol';\n\n\ncontract DCCSC{\n    \n    address payable public thisdccsc;    //address of this DCCSC\n    address payable public owner;        //address of owner\n    \n    string  public Datain;               //address of data input  \n    string  public Dataout;              //address of data output\n    \n    address payable public owner_ucsc;\n    address payable public Ucsc;                 //ucsc address\n    address payable public tcsc;                 //tcsc address\n    \n    uint256 public state;                //online ? offline\n    uint256 public skill;                //Compute power\n    int256 public Trust;                //Trust value\n    int256 public M;                    //reward value\n    uint256 public timedll;              //upload  deadline\n    uint256 public timepdll;             //payment deadline\n    int256  public rewardt;\n    uint256 public test;\n    address payable public testaddr;\n    constructor() payable public{\n        state = 0;\n        skill = 30;\n        Trust = 30;\n        M = 8;\n        rewardt = 12;\n        owner = msg.sender;\n        //thisdccsc = address(this);\n        thisdccsc = address(uint160(address(this))); //for turffle\n    }\n    \n    function set_info(address payable addrtcsc,address payable addrucsc)public returns (uint256){\n        tcsc = addrtcsc;\n        Datain = TCSC(addrtcsc).get_addr_from();\n        Dataout = TCSC(addrtcsc).get_addr_upload();\n        timedll = TCSC(addrtcsc).get_time_ddl();\n        timepdll = TCSC(addrtcsc).get_time_pddl();\n        owner_ucsc = addrucsc;\n        return 0;\n    }\n    \n    function Getwork_edge(address payable ucsc)public returns(uint256){\n        testaddr = address(uint160(ucsc));\n        uint256 t1 = UCSC(testaddr).get_skill();\n        int256 t2 = UCSC(testaddr).get_trust();\n        \n        if((t1 >= skill) && (t2 >= Trust)){\n            Ucsc = testaddr;\n            UCSC(owner_ucsc).add_dccsc(thisdccsc);\n        }\n        return 0;\n    }\n\n    \n    \n    function get_rewardt()public returns(int256){\n        return rewardt;\n    }\n    \n    function get_rewardc()public returns(int256){\n        return M;\n    }\n    \n    function get_ucscaddr()public returns(address){\n        return Ucsc;\n    }\n    function get_oucscaddr()public returns(address){\n        return owner_ucsc;\n    }\n    \n    fallback() external payable{}\n    \n}\n",
  "sourcePath": "/home/zmr/YQL_AWS/contracts/DCCSC.sol",
  "compiler": {
    "name": "solc",
    "version": "0.6.7+commit.b8d736ae.Emscripten.clang"
  },
  "schemaVersion": "3.2.1",
  "updatedAt": "2020-07-09T05:14:30.703Z",
  "networkType": "ethereum",
  "devdoc": {
    "methods": {}
  },
  "userdoc": {
    "methods": {}
  }
}