{
  "contractName": "TCSC",
  "abi": [
    {
      "inputs": [],
      "stateMutability": "payable",
      "type": "constructor",
      "payable": true
    },
    {
      "stateMutability": "payable",
      "type": "fallback",
      "payable": true
    },
    {
      "inputs": [],
      "name": "Dm",
      "outputs": [
        {
          "internalType": "uint256",
          "name": "",
          "type": "uint256"
        }
      ],
      "stateMutability": "view",
      "type": "function",
      "constant": true
    },
    {
      "inputs": [],
      "name": "M",
      "outputs": [
        {
          "internalType": "int256",
          "name": "",
          "type": "int256"
        }
      ],
      "stateMutability": "view",
      "type": "function",
      "constant": true
    },
    {
      "inputs": [
        {
          "internalType": "uint256",
          "name": "",
          "type": "uint256"
        }
      ],
      "name": "Set_prework",
      "outputs": [
        {
          "internalType": "address",
          "name": "",
          "type": "address"
        }
      ],
      "stateMutability": "view",
      "type": "function",
      "constant": true
    },
    {
      "inputs": [
        {
          "internalType": "uint256",
          "name": "",
          "type": "uint256"
        }
      ],
      "name": "Set_verify",
      "outputs": [
        {
          "internalType": "address",
          "name": "",
          "type": "address"
        }
      ],
      "stateMutability": "view",
      "type": "function",
      "constant": true
    },
    {
      "inputs": [
        {
          "internalType": "uint256",
          "name": "",
          "type": "uint256"
        }
      ],
      "name": "Set_work",
      "outputs": [
        {
          "internalType": "address",
          "name": "",
          "type": "address"
        }
      ],
      "stateMutability": "view",
      "type": "function",
      "constant": true
    },
    {
      "inputs": [],
      "name": "Trust",
      "outputs": [
        {
          "internalType": "int256",
          "name": "",
          "type": "int256"
        }
      ],
      "stateMutability": "view",
      "type": "function",
      "constant": true
    },
    {
      "inputs": [],
      "name": "addr_data",
      "outputs": [
        {
          "internalType": "string",
          "name": "",
          "type": "string"
        }
      ],
      "stateMutability": "view",
      "type": "function",
      "constant": true
    },
    {
      "inputs": [],
      "name": "addr_updata",
      "outputs": [
        {
          "internalType": "string",
          "name": "",
          "type": "string"
        }
      ],
      "stateMutability": "view",
      "type": "function",
      "constant": true
    },
    {
      "inputs": [],
      "name": "ccount",
      "outputs": [
        {
          "internalType": "uint256",
          "name": "",
          "type": "uint256"
        }
      ],
      "stateMutability": "view",
      "type": "function",
      "constant": true
    },
    {
      "inputs": [],
      "name": "coin",
      "outputs": [
        {
          "internalType": "int256",
          "name": "",
          "type": "int256"
        }
      ],
      "stateMutability": "view",
      "type": "function",
      "constant": true
    },
    {
      "inputs": [],
      "name": "complete_count",
      "outputs": [
        {
          "internalType": "uint256",
          "name": "",
          "type": "uint256"
        }
      ],
      "stateMutability": "view",
      "type": "function",
      "constant": true
    },
    {
      "inputs": [],
      "name": "count",
      "outputs": [
        {
          "internalType": "uint256",
          "name": "",
          "type": "uint256"
        }
      ],
      "stateMutability": "view",
      "type": "function",
      "constant": true
    },
    {
      "inputs": [],
      "name": "fun_verify",
      "outputs": [
        {
          "internalType": "string",
          "name": "",
          "type": "string"
        }
      ],
      "stateMutability": "view",
      "type": "function",
      "constant": true
    },
    {
      "inputs": [
        {
          "internalType": "uint256",
          "name": "",
          "type": "uint256"
        }
      ],
      "name": "now_flag",
      "outputs": [
        {
          "internalType": "uint256",
          "name": "",
          "type": "uint256"
        }
      ],
      "stateMutability": "view",
      "type": "function",
      "constant": true
    },
    {
      "inputs": [],
      "name": "owner",
      "outputs": [
        {
          "internalType": "address payable",
          "name": "",
          "type": "address"
        }
      ],
      "stateMutability": "view",
      "type": "function",
      "constant": true
    },
    {
      "inputs": [],
      "name": "paytest",
      "outputs": [
        {
          "internalType": "address payable",
          "name": "",
          "type": "address"
        }
      ],
      "stateMutability": "view",
      "type": "function",
      "constant": true
    },
    {
      "inputs": [
        {
          "internalType": "uint256",
          "name": "",
          "type": "uint256"
        }
      ],
      "name": "real_res",
      "outputs": [
        {
          "internalType": "uint256",
          "name": "",
          "type": "uint256"
        }
      ],
      "stateMutability": "view",
      "type": "function",
      "constant": true
    },
    {
      "inputs": [
        {
          "internalType": "uint256",
          "name": "",
          "type": "uint256"
        }
      ],
      "name": "require_res",
      "outputs": [
        {
          "internalType": "uint256",
          "name": "",
          "type": "uint256"
        }
      ],
      "stateMutability": "view",
      "type": "function",
      "constant": true
    },
    {
      "inputs": [],
      "name": "reward_trust",
      "outputs": [
        {
          "internalType": "int256",
          "name": "",
          "type": "int256"
        }
      ],
      "stateMutability": "view",
      "type": "function",
      "constant": true
    },
    {
      "inputs": [],
      "name": "skill",
      "outputs": [
        {
          "internalType": "uint256",
          "name": "",
          "type": "uint256"
        }
      ],
      "stateMutability": "view",
      "type": "function",
      "constant": true
    },
    {
      "inputs": [],
      "name": "stand",
      "outputs": [
        {
          "internalType": "uint256",
          "name": "",
          "type": "uint256"
        }
      ],
      "stateMutability": "view",
      "type": "function",
      "constant": true
    },
    {
      "inputs": [],
      "name": "state",
      "outputs": [
        {
          "internalType": "uint256",
          "name": "",
          "type": "uint256"
        }
      ],
      "stateMutability": "view",
      "type": "function",
      "constant": true
    },
    {
      "inputs": [],
      "name": "thistcsc",
      "outputs": [
        {
          "internalType": "address payable",
          "name": "",
          "type": "address"
        }
      ],
      "stateMutability": "view",
      "type": "function",
      "constant": true
    },
    {
      "inputs": [],
      "name": "time_ddl",
      "outputs": [
        {
          "internalType": "uint256",
          "name": "",
          "type": "uint256"
        }
      ],
      "stateMutability": "view",
      "type": "function",
      "constant": true
    },
    {
      "inputs": [],
      "name": "time_pddl",
      "outputs": [
        {
          "internalType": "uint256",
          "name": "",
          "type": "uint256"
        }
      ],
      "stateMutability": "view",
      "type": "function",
      "constant": true
    },
    {
      "inputs": [
        {
          "internalType": "uint256",
          "name": "",
          "type": "uint256"
        }
      ],
      "name": "update_flag",
      "outputs": [
        {
          "internalType": "uint256",
          "name": "",
          "type": "uint256"
        }
      ],
      "stateMutability": "view",
      "type": "function",
      "constant": true
    },
    {
      "inputs": [
        {
          "internalType": "uint256",
          "name": "",
          "type": "uint256"
        }
      ],
      "name": "verify_flag",
      "outputs": [
        {
          "internalType": "uint256",
          "name": "",
          "type": "uint256"
        }
      ],
      "stateMutability": "view",
      "type": "function",
      "constant": true
    },
    {
      "inputs": [
        {
          "internalType": "uint256",
          "name": "index",
          "type": "uint256"
        }
      ],
      "name": "init_tcsc",
      "outputs": [
        {
          "internalType": "uint256",
          "name": "",
          "type": "uint256"
        }
      ],
      "stateMutability": "nonpayable",
      "type": "function"
    },
    {
      "inputs": [
        {
          "internalType": "uint256",
          "name": "newdm",
          "type": "uint256"
        }
      ],
      "name": "set_Dm",
      "outputs": [
        {
          "internalType": "uint256",
          "name": "",
          "type": "uint256"
        }
      ],
      "stateMutability": "nonpayable",
      "type": "function"
    },
    {
      "inputs": [
        {
          "internalType": "address payable",
          "name": "user",
          "type": "address"
        }
      ],
      "name": "Getwork_task",
      "outputs": [
        {
          "internalType": "uint256",
          "name": "",
          "type": "uint256"
        }
      ],
      "stateMutability": "payable",
      "type": "function",
      "payable": true
    },
    {
      "inputs": [
        {
          "internalType": "address payable",
          "name": "addr",
          "type": "address"
        }
      ],
      "name": "check_condition",
      "outputs": [
        {
          "internalType": "uint256",
          "name": "",
          "type": "uint256"
        }
      ],
      "stateMutability": "nonpayable",
      "type": "function"
    },
    {
      "inputs": [
        {
          "internalType": "address",
          "name": "addr",
          "type": "address"
        }
      ],
      "name": "Upload_by_ucsc",
      "outputs": [
        {
          "internalType": "int256",
          "name": "",
          "type": "int256"
        }
      ],
      "stateMutability": "nonpayable",
      "type": "function"
    },
    {
      "inputs": [
        {
          "internalType": "address payable",
          "name": "addr",
          "type": "address"
        }
      ],
      "name": "Upload_by_dccsc",
      "outputs": [
        {
          "internalType": "int256",
          "name": "",
          "type": "int256"
        }
      ],
      "stateMutability": "nonpayable",
      "type": "function"
    },
    {
      "inputs": [
        {
          "internalType": "address",
          "name": "addr",
          "type": "address"
        }
      ],
      "name": "verify_id",
      "outputs": [
        {
          "internalType": "int256",
          "name": "",
          "type": "int256"
        }
      ],
      "stateMutability": "nonpayable",
      "type": "function"
    },
    {
      "inputs": [
        {
          "internalType": "address",
          "name": "addr",
          "type": "address"
        },
        {
          "internalType": "uint256",
          "name": "index",
          "type": "uint256"
        }
      ],
      "name": "verify_data_by_Third",
      "outputs": [
        {
          "internalType": "int256",
          "name": "",
          "type": "int256"
        }
      ],
      "stateMutability": "nonpayable",
      "type": "function"
    },
    {
      "inputs": [
        {
          "internalType": "address",
          "name": "addr",
          "type": "address"
        },
        {
          "internalType": "uint256",
          "name": "index",
          "type": "uint256"
        },
        {
          "internalType": "uint256",
          "name": "res",
          "type": "uint256"
        }
      ],
      "name": "verify_uploadres_by_Third",
      "outputs": [
        {
          "internalType": "int256",
          "name": "",
          "type": "int256"
        }
      ],
      "stateMutability": "nonpayable",
      "type": "function"
    },
    {
      "inputs": [
        {
          "internalType": "address",
          "name": "addr",
          "type": "address"
        }
      ],
      "name": "verify_vid",
      "outputs": [
        {
          "internalType": "int256",
          "name": "",
          "type": "int256"
        }
      ],
      "stateMutability": "nonpayable",
      "type": "function"
    },
    {
      "inputs": [],
      "name": "get_addr_from",
      "outputs": [
        {
          "internalType": "string",
          "name": "",
          "type": "string"
        }
      ],
      "stateMutability": "nonpayable",
      "type": "function"
    },
    {
      "inputs": [],
      "name": "get_addr_upload",
      "outputs": [
        {
          "internalType": "string",
          "name": "",
          "type": "string"
        }
      ],
      "stateMutability": "nonpayable",
      "type": "function"
    },
    {
      "inputs": [],
      "name": "get_time_ddl",
      "outputs": [
        {
          "internalType": "uint256",
          "name": "",
          "type": "uint256"
        }
      ],
      "stateMutability": "nonpayable",
      "type": "function"
    },
    {
      "inputs": [],
      "name": "get_time_pddl",
      "outputs": [
        {
          "internalType": "uint256",
          "name": "",
          "type": "uint256"
        }
      ],
      "stateMutability": "nonpayable",
      "type": "function"
    },
    {
      "inputs": [],
      "name": "Payment_Task",
      "outputs": [
        {
          "internalType": "uint256",
          "name": "",
          "type": "uint256"
        }
      ],
      "stateMutability": "payable",
      "type": "function",
      "payable": true
    },
    {
      "inputs": [],
      "name": "check_complete",
      "outputs": [
        {
          "internalType": "uint256",
          "name": "",
          "type": "uint256"
        }
      ],
      "stateMutability": "nonpayable",
      "type": "function"
    },
    {
      "inputs": [],
      "name": "get_count",
      "outputs": [
        {
          "internalType": "uint256",
          "name": "",
          "type": "uint256"
        }
      ],
      "stateMutability": "nonpayable",
      "type": "function"
    },
    {
      "inputs": [
        {
          "internalType": "uint256",
          "name": "temp",
          "type": "uint256"
        }
      ],
      "name": "init_tcsc_ideal",
      "outputs": [
        {
          "internalType": "uint256",
          "name": "",
          "type": "uint256"
        }
      ],
      "stateMutability": "nonpayable",
      "type": "function"
    },
    {
      "inputs": [
        {
          "internalType": "address payable",
          "name": "addr",
          "type": "address"
        }
      ],
      "name": "init_ideal_evn",
      "outputs": [
        {
          "internalType": "uint256",
          "name": "",
          "type": "uint256"
        }
      ],
      "stateMutability": "nonpayable",
      "type": "function"
    }
  ],
  "bytecode": "0x60806040526000600281905550600a6003819055506000600c81905550600a600d81905550600a600e81905550600a600f8190555060646010819055506064601181905550600a6012819055506000601381905550600060178190555060006018819055506103e86019819055506040518060400160405280600981526020017f3132372e302e302e31000000000000000000000000000000000000000000000081525060149080519060200190620000ba92919062000190565b506040518060400160405280600b81526020017f3139322e3136382e302e31000000000000000000000000000000000000000000815250601590805190602001906200010892919062000190565b5033600160006101000a81548173ffffffffffffffffffffffffffffffffffffffff021916908373ffffffffffffffffffffffffffffffffffffffff160217905550306000806101000a81548173ffffffffffffffffffffffffffffffffffffffff021916908373ffffffffffffffffffffffffffffffffffffffff1602179055506200023f565b828054600181600116156101000203166002900490600052602060002090601f016020900481019282601f10620001d357805160ff191683800117855562000204565b8280016001018555821562000204579182015b8281111562000203578251825591602001919060010190620001e6565b5b50905062000213919062000217565b5090565b6200023c91905b80821115620002385760008160009055506001016200021e565b5090565b90565b612985806200024f6000396000f3fe6080604052600436106102815760003560e01c806363ee46611161014f578063979bfb46116100c1578063c24fb2b61161007a578063c24fb2b614610f9d578063c2897b1014610fc8578063da932b9114610ff3578063e7278e7f1461101e578063e94bf11514611049578063f895b23d1461107457610282565b8063979bfb4614610d8c578063a5cbe8b314610df1578063aaaba45914610e48578063aced27e414610e9f578063b47540f814610ef7578063c19d93fb14610f7257610282565b8063829676ab11610113578063829676ab14610bc6578063853d698114610c2b5780638b98c63814610c565780638c2f0b1614610cbb5780638da5cb5b14610d0a5780639472dcde14610d6157610282565b806363ee466114610a42578063693f917e14610a915780636e428ec814610abc5780636fcb6dc614610b4c5780638165ce6714610b7757610282565b80632530a6a8116101f35780633d172760116101ac5780633d172760146108505780633e8f975b1461089f5780633ffd92ae146108ca57806344df92bb146108e85780634fe5b0361461093757806363d16478146109b257610282565b80632530a6a81461065357806330d51bd2146106a257806334befc1f1461071b578063357ff9321461076a5780633890cb09146107955780633d16e056146107c057610282565b80630f14d18e116102455780630f14d18e1461048d57806311df9995146104b8578063164c9bf0146104e357806318c1341f1461050e5780631e19639d1461058957806324837df4146105ee57610282565b8063060a057f1461028457806306661abd146102f35780630ac9c9ac1461031e5780630c747b5e1461036d5780630e651f19146103fd57610282565b5b005b34801561029057600080fd5b506102dd600480360360408110156102a757600080fd5b81019080803573ffffffffffffffffffffffffffffffffffffffff169060200190929190803590602001909291905050506110d9565b6040518082815260200191505060405180910390f35b3480156102ff57600080fd5b50610308611179565b6040518082815260200191505060405180910390f35b34801561032a57600080fd5b506103576004803603602081101561034157600080fd5b810190808035906020019092919050505061117f565b6040518082815260200191505060405180910390f35b34801561037957600080fd5b506103826111a0565b6040518080602001828103825283818151815260200191508051906020019080838360005b838110156103c25780820151818401526020810190506103a7565b50505050905090810190601f1680156103ef5780820380516001836020036101000a031916815260200191505b509250505060405180910390f35b34801561040957600080fd5b50610412611242565b6040518080602001828103825283818151815260200191508051906020019080838360005b83811015610452578082015181840152602081019050610437565b50505050905090810190601f16801561047f5780820380516001836020036101000a031916815260200191505b509250505060405180910390f35b34801561049957600080fd5b506104a26112e4565b6040518082815260200191505060405180910390f35b3480156104c457600080fd5b506104cd6112ea565b6040518082815260200191505060405180910390f35b3480156104ef57600080fd5b506104f86112f0565b6040518082815260200191505060405180910390f35b34801561051a57600080fd5b506105476004803603602081101561053157600080fd5b81019080803590602001909291905050506112f6565b604051808273ffffffffffffffffffffffffffffffffffffffff1673ffffffffffffffffffffffffffffffffffffffff16815260200191505060405180910390f35b34801561059557600080fd5b506105d8600480360360208110156105ac57600080fd5b81019080803573ffffffffffffffffffffffffffffffffffffffff169060200190929190505050611332565b6040518082815260200191505060405180910390f35b3480156105fa57600080fd5b5061063d6004803603602081101561061157600080fd5b81019080803573ffffffffffffffffffffffffffffffffffffffff16906020019092919050505061144a565b6040518082815260200191505060405180910390f35b34801561065f57600080fd5b5061068c6004803603602081101561067657600080fd5b8101908080359060200190929190505050611503565b6040518082815260200191505060405180910390f35b3480156106ae57600080fd5b50610705600480360360608110156106c557600080fd5b81019080803573ffffffffffffffffffffffffffffffffffffffff1690602001909291908035906020019092919080359060200190929190505050611524565b6040518082815260200191505060405180910390f35b34801561072757600080fd5b506107546004803603602081101561073e57600080fd5b810190808035906020019092919050505061158e565b6040518082815260200191505060405180910390f35b34801561077657600080fd5b5061077f6115af565b6040518082815260200191505060405180910390f35b3480156107a157600080fd5b506107aa6115b5565b6040518082815260200191505060405180910390f35b3480156107cc57600080fd5b506107d56115bb565b6040518080602001828103825283818151815260200191508051906020019080838360005b838110156108155780820151818401526020810190506107fa565b50505050905090810190601f1680156108425780820380516001836020036101000a031916815260200191505b509250505060405180910390f35b34801561085c57600080fd5b506108896004803603602081101561087357600080fd5b8101908080359060200190929190505050611659565b6040518082815260200191505060405180910390f35b3480156108ab57600080fd5b506108b4611986565b6040518082815260200191505060405180910390f35b6108d2611990565b6040518082815260200191505060405180910390f35b3480156108f457600080fd5b506109216004803603602081101561090b57600080fd5b8101908080359060200190929190505050611fc9565b6040518082815260200191505060405180910390f35b34801561094357600080fd5b506109706004803603602081101561095a57600080fd5b8101908080359060200190929190505050611fea565b604051808273ffffffffffffffffffffffffffffffffffffffff1673ffffffffffffffffffffffffffffffffffffffff16815260200191505060405180910390f35b3480156109be57600080fd5b506109c7612026565b6040518080602001828103825283818151815260200191508051906020019080838360005b83811015610a075780820151818401526020810190506109ec565b50505050905090810190601f168015610a345780820380516001836020036101000a031916815260200191505b509250505060405180910390f35b348015610a4e57600080fd5b50610a7b60048036036020811015610a6557600080fd5b81019080803590602001909291905050506120c4565b6040518082815260200191505060405180910390f35b348015610a9d57600080fd5b50610aa66120d6565b6040518082815260200191505060405180910390f35b348015610ac857600080fd5b50610ad16120dc565b6040518080602001828103825283818151815260200191508051906020019080838360005b83811015610b11578082015181840152602081019050610af6565b50505050905090810190601f168015610b3e5780820380516001836020036101000a031916815260200191505b509250505060405180910390f35b348015610b5857600080fd5b50610b6161217a565b6040518082815260200191505060405180910390f35b348015610b8357600080fd5b50610bb060048036036020811015610b9a57600080fd5b8101908080359060200190929190505050612180565b6040518082815260200191505060405180910390f35b348015610bd257600080fd5b50610c1560048036036020811015610be957600080fd5b81019080803573ffffffffffffffffffffffffffffffffffffffff16906020019092919050505061219c565b6040518082815260200191505060405180910390f35b348015610c3757600080fd5b50610c40612274565b6040518082815260200191505060405180910390f35b348015610c6257600080fd5b50610ca560048036036020811015610c7957600080fd5b81019080803573ffffffffffffffffffffffffffffffffffffffff16906020019092919050505061227a565b6040518082815260200191505060405180910390f35b348015610cc757600080fd5b50610cf460048036036020811015610cde57600080fd5b8101908080359060200190929190505050612352565b6040518082815260200191505060405180910390f35b348015610d1657600080fd5b50610d1f612373565b604051808273ffffffffffffffffffffffffffffffffffffffff1673ffffffffffffffffffffffffffffffffffffffff16815260200191505060405180910390f35b348015610d6d57600080fd5b50610d76612399565b6040518082815260200191505060405180910390f35b348015610d9857600080fd5b50610ddb60048036036020811015610daf57600080fd5b81019080803573ffffffffffffffffffffffffffffffffffffffff1690602001909291905050506123e0565b6040518082815260200191505060405180910390f35b348015610dfd57600080fd5b50610e06612548565b604051808273ffffffffffffffffffffffffffffffffffffffff1673ffffffffffffffffffffffffffffffffffffffff16815260200191505060405180910390f35b348015610e5457600080fd5b50610e5d61256d565b604051808273ffffffffffffffffffffffffffffffffffffffff1673ffffffffffffffffffffffffffffffffffffffff16815260200191505060405180910390f35b610ee160048036036020811015610eb557600080fd5b81019080803573ffffffffffffffffffffffffffffffffffffffff169060200190929190505050612593565b6040518082815260200191505060405180910390f35b348015610f0357600080fd5b50610f3060048036036020811015610f1a57600080fd5b8101908080359060200190929190505050612719565b604051808273ffffffffffffffffffffffffffffffffffffffff1673ffffffffffffffffffffffffffffffffffffffff16815260200191505060405180910390f35b348015610f7e57600080fd5b50610f87612755565b6040518082815260200191505060405180910390f35b348015610fa957600080fd5b50610fb261275b565b6040518082815260200191505060405180910390f35b348015610fd457600080fd5b50610fdd612761565b6040518082815260200191505060405180910390f35b348015610fff57600080fd5b50611008612767565b6040518082815260200191505060405180910390f35b34801561102a57600080fd5b50611033612771565b6040518082815260200191505060405180910390f35b34801561105557600080fd5b5061105e61277b565b6040518082815260200191505060405180910390f35b34801561108057600080fd5b506110c36004803603602081101561109757600080fd5b81019080803573ffffffffffffffffffffffffffffffffffffffff169060200190929190505050612781565b6040518082815260200191505060405180910390f35b60006001600983815481106110ea57fe5b9060005260206000200154141561116f57826006838154811061110957fe5b9060005260206000200160006101000a81548173ffffffffffffffffffffffffffffffffffffffff021916908373ffffffffffffffffffffffffffffffffffffffff16021790555060036009838154811061116057fe5b90600052602060002001819055505b6000905092915050565b60125481565b600b818154811061118c57fe5b906000526020600020016000915090505481565b606060148054600181600116156101000203166002900480601f0160208091040260200160405190810160405280929190818152602001828054600181600116156101000203166002900480156112385780601f1061120d57610100808354040283529160200191611238565b820191906000526020600020905b81548152906001019060200180831161121b57829003601f168201915b5050505050905090565b606060158054600181600116156101000203166002900480601f0160208091040260200160405190810160405280929190818152602001828054600181600116156101000203166002900480156112da5780601f106112af576101008083540402835291602001916112da565b820191906000526020600020905b8154815290600101906020018083116112bd57829003601f168201915b5050505050905090565b600e5481565b60195481565b600d5481565b6005818154811061130357fe5b906000526020600020016000915054906101000a900473ffffffffffffffffffffffffffffffffffffffff1681565b6000808273ffffffffffffffffffffffffffffffffffffffff1663ff2c65446040518163ffffffff1660e01b8152600401602060405180830381600087803b15801561137d57600080fd5b505af1158015611391573d6000803e3d6000fd5b505050506040513d60208110156113a757600080fd5b8101908080519060200190929190505050905060006113c58261227a565b90506000819050600082126114125743600882815481106113e257fe5b90600052602060002001819055506001600982815481106113ff57fe5b906000526020600020018190555061143d565b7fffffffffffffffffffffffffffffffffffffffffffffffffffffffffffffffff9350505050611445565b600093505050505b919050565b600080600090505b6012548110156114f957826004828154811061146a57fe5b9060005260206000200160006101000a81548173ffffffffffffffffffffffffffffffffffffffff021916908373ffffffffffffffffffffffffffffffffffffffff1602179055506064600b82815481106114c157fe5b90600052602060002001819055506000600882815481106114de57fe5b90600052602060002001819055508080600101915050611452565b5060009050919050565b6007818154811061151057fe5b906000526020600020016000915090505481565b6000806115308561219c565b90506000811215801561154557506012548411155b156115825760186000815480929190600101919050555082600b858154811061156a57fe5b9060005260206000200181905550611580611990565b505b60009150509392505050565b600a818154811061159b57fe5b906000526020600020016000915090505481565b60115481565b60175481565b60158054600181600116156101000203166002900480601f0160208091040260200160405190810160405280929190818152602001828054600181600116156101000203166002900480156116515780601f1061162657610100808354040283529160200191611651565b820191906000526020600020905b81548152906001019060200180831161163457829003601f168201915b505050505081565b60008167ffffffffffffffff8111801561167257600080fd5b506040519080825280602002602001820160405280156116a15781602001602082028036833780820191505090505b50600490805190602001906116b7929190612810565b508167ffffffffffffffff811180156116cf57600080fd5b506040519080825280602002602001820160405280156116fe5781602001602082028036833780820191505090505b5060059080519060200190611714929190612810565b508167ffffffffffffffff8111801561172c57600080fd5b5060405190808252806020026020018201604052801561175b5781602001602082028036833780820191505090505b5060069080519060200190611771929190612810565b508167ffffffffffffffff8111801561178957600080fd5b506040519080825280602002602001820160405280156117b85781602001602082028036833780820191505090505b50600990805190602001906117ce92919061289a565b508167ffffffffffffffff811180156117e657600080fd5b506040519080825280602002602001820160405280156118155781602001602082028036833780820191505090505b506008908051906020019061182b92919061289a565b508167ffffffffffffffff8111801561184357600080fd5b506040519080825280602002602001820160405280156118725781602001602082028036833780820191505090505b50600a908051906020019061188892919061289a565b508167ffffffffffffffff811180156118a057600080fd5b506040519080825280602002602001820160405280156118cf5781602001602082028036833780820191505090505b50600b90805190602001906118e592919061289a565b5060008090505b828110156119755760006009828154811061190357fe5b906000526020600020018190555060006008828154811061192057fe5b90600052602060002001819055506000600a828154811061193d57fe5b90600052602060002001819055506000600b828154811061195a57fe5b906000526020600020018190555080806001019150506118ec565b508160128190555060009050919050565b6000601054905090565b60008061199b612399565b90506001811415611d965760008090505b601254811015611d9457600a81815481106119c357fe5b9060005260206000200154600b82815481106119db57fe5b906000526020600020015410158015611a0d5750601054600882815481106119ff57fe5b906000526020600020015411155b15611b9d5760048181548110611a1f57fe5b9060005260206000200160009054906101000a900473ffffffffffffffffffffffffffffffffffffffff16601a60006101000a81548173ffffffffffffffffffffffffffffffffffffffff021916908373ffffffffffffffffffffffffffffffffffffffff160217905550601a60009054906101000a900473ffffffffffffffffffffffffffffffffffffffff1673ffffffffffffffffffffffffffffffffffffffff1663a77d236d6000809054906101000a900473ffffffffffffffffffffffffffffffffffffffff16600e54600f546040518463ffffffff1660e01b8152600401808473ffffffffffffffffffffffffffffffffffffffff1673ffffffffffffffffffffffffffffffffffffffff1681526020018381526020018281526020019350505050602060405180830381600087803b158015611b6057600080fd5b505af1158015611b74573d6000803e3d6000fd5b505050506040513d6020811015611b8a57600080fd5b8101908080519060200190929190505050505b600a8181548110611baa57fe5b9060005260206000200154600b8281548110611bc257fe5b90600052602060002001541080611bf1575060105460088281548110611be457fe5b9060005260206000200154115b15611d875760048181548110611c0357fe5b9060005260206000200160009054906101000a900473ffffffffffffffffffffffffffffffffffffffff16601a60006101000a81548173ffffffffffffffffffffffffffffffffffffffff021916908373ffffffffffffffffffffffffffffffffffffffff160217905550601a60009054906101000a900473ffffffffffffffffffffffffffffffffffffffff1673ffffffffffffffffffffffffffffffffffffffff1663a77d236d6000809054906101000a900473ffffffffffffffffffffffffffffffffffffffff16600e54600003600f546000036040518463ffffffff1660e01b8152600401808473ffffffffffffffffffffffffffffffffffffffff1673ffffffffffffffffffffffffffffffffffffffff1681526020018381526020018281526020019350505050602060405180830381600087803b158015611d4a57600080fd5b505af1158015611d5e573d6000803e3d6000fd5b505050506040513d6020811015611d7457600080fd5b8101908080519060200190929190505050505b80806001019150506119ac565b505b6002811415611fb95760008090505b601254811015611fb75760048181548110611dbc57fe5b9060005260206000200160009054906101000a900473ffffffffffffffffffffffffffffffffffffffff16601a60006101000a81548173ffffffffffffffffffffffffffffffffffffffff021916908373ffffffffffffffffffffffffffffffffffffffff160217905550601a60009054906101000a900473ffffffffffffffffffffffffffffffffffffffff1673ffffffffffffffffffffffffffffffffffffffff1663a77d236d6000809054906101000a900473ffffffffffffffffffffffffffffffffffffffff16600e54600f546040518463ffffffff1660e01b8152600401808473ffffffffffffffffffffffffffffffffffffffff1673ffffffffffffffffffffffffffffffffffffffff1681526020018381526020018281526020019350505050602060405180830381600087803b158015611efd57600080fd5b505af1158015611f11573d6000803e3d6000fd5b505050506040513d6020811015611f2757600080fd5b810190808051906020019092919050505050601a60009054906101000a900473ffffffffffffffffffffffffffffffffffffffff1673ffffffffffffffffffffffffffffffffffffffff166108fc674563918244f400009081150290604051600060405180830381858888f19350505050158015611fa9573d6000803e3d6000fd5b508080600101915050611da5565b505b6001600281905550600091505090565b60098181548110611fd657fe5b906000526020600020016000915090505481565b60068181548110611ff757fe5b906000526020600020016000915054906101000a900473ffffffffffffffffffffffffffffffffffffffff1681565b60168054600181600116156101000203166002900480601f0160208091040260200160405190810160405280929190818152602001828054600181600116156101000203166002900480156120bc5780601f10612091576101008083540402835291602001916120bc565b820191906000526020600020905b81548152906001019060200180831161209f57829003601f168201915b505050505081565b600081600c8190555060009050919050565b600f5481565b60148054600181600116156101000203166002900480601f0160208091040260200160405190810160405280929190818152602001828054600181600116156101000203166002900480156121725780601f1061214757610100808354040283529160200191612172565b820191906000526020600020905b81548152906001019060200180831161215557829003601f168201915b505050505081565b60035481565b600061218b82611659565b508160188190555060009050919050565b6000806000905060125481101561224a578273ffffffffffffffffffffffffffffffffffffffff16600682815481106121d157fe5b9060005260206000200160009054906101000a900473ffffffffffffffffffffffffffffffffffffffff1673ffffffffffffffffffffffffffffffffffffffff161415612221578091505061226f565b7fffffffffffffffffffffffffffffffffffffffffffffffffffffffffffffffff91505061226f565b507fffffffffffffffffffffffffffffffffffffffffffffffffffffffffffffffff90505b919050565b60135481565b60008060009050601254811015612328578273ffffffffffffffffffffffffffffffffffffffff16600482815481106122af57fe5b9060005260206000200160009054906101000a900473ffffffffffffffffffffffffffffffffffffffff1673ffffffffffffffffffffffffffffffffffffffff1614156122ff578091505061234d565b7fffffffffffffffffffffffffffffffffffffffffffffffffffffffffffffffff91505061234d565b507fffffffffffffffffffffffffffffffffffffffffffffffffffffffffffffffff90505b919050565b6008818154811061235f57fe5b906000526020600020016000915090505481565b600160009054906101000a900473ffffffffffffffffffffffffffffffffffffffff1681565b6000804390506012546018541480156123b457506010548111155b156123c35760019150506123dd565b6011548111156123d75760029150506123dd565b60009150505b90565b6000808273ffffffffffffffffffffffffffffffffffffffff166396db3b0a6040518163ffffffff1660e01b8152600401602060405180830381600087803b15801561242b57600080fd5b505af115801561243f573d6000803e3d6000fd5b505050506040513d602081101561245557600080fd5b8101908080519060200190929190505050905060008373ffffffffffffffffffffffffffffffffffffffff1663634129ee6040518163ffffffff1660e01b8152600401602060405180830381600087803b1580156124b257600080fd5b505af11580156124c6573d6000803e3d6000fd5b505050506040513d60208110156124dc57600080fd5b81019080805190602001909291905050509050601254601354116124ff5761250a565b600192505050612543565b600354821061251857612523565b600292505050612543565b600d5481126125315761253c565b600292505050612543565b6000925050505b919050565b6000809054906101000a900473ffffffffffffffffffffffffffffffffffffffff1681565b601a60009054906101000a900473ffffffffffffffffffffffffffffffffffffffff1681565b60008061259f836123e0565b905060008373ffffffffffffffffffffffffffffffffffffffff166344c7ee456040518163ffffffff1660e01b8152600401602060405180830381600087803b1580156125eb57600080fd5b505af11580156125ff573d6000803e3d6000fd5b505050506040513d602081101561261557600080fd5b8101908080519060200190929190505050905060008214156126f8578360046013548154811061264157fe5b9060005260206000200160006101000a81548173ffffffffffffffffffffffffffffffffffffffff021916908373ffffffffffffffffffffffffffffffffffffffff1602179055508060056013548154811061269957fe5b9060005260206000200160006101000a81548173ffffffffffffffffffffffffffffffffffffffff021916908373ffffffffffffffffffffffffffffffffffffffff160217905550601360008154809291906001019190505550612703565b600192505050612714565b600060016013540390508093505050505b919050565b6004818154811061272657fe5b906000526020600020016000915054906101000a900473ffffffffffffffffffffffffffffffffffffffff1681565b60025481565b60105481565b60185481565b6000601154905090565b6000601254905090565b600c5481565b60008061278d8361227a565b90506000819050600082126127da5743600882815481106127aa57fe5b90600052602060002001819055506001600982815481106127c757fe5b9060005260206000200181905550612804565b7fffffffffffffffffffffffffffffffffffffffffffffffffffffffffffffffff9250505061280b565b6000925050505b919050565b828054828255906000526020600020908101928215612889579160200282015b828111156128885782518260006101000a81548173ffffffffffffffffffffffffffffffffffffffff021916908373ffffffffffffffffffffffffffffffffffffffff16021790555091602001919060010190612830565b5b50905061289691906128e7565b5090565b8280548282559060005260206000209081019282156128d6579160200282015b828111156128d55782518255916020019190600101906128ba565b5b5090506128e3919061292a565b5090565b61292791905b8082111561292357600081816101000a81549073ffffffffffffffffffffffffffffffffffffffff0219169055506001016128ed565b5090565b90565b61294c91905b80821115612948576000816000905550600101612930565b5090565b9056fea264697066735822122073667da62ab0114f251a6ae0c34a71e0fbcc70fa2c8424ee22cb403210c78df164736f6c63430006070033",
  "immutableReferences": {},
  "source": "pragma solidity >=0.4.0 <0.7.0;\nimport './UCSC.sol';\n\n\ncontract TCSC{\n    \n    address payable public thistcsc;   //This TCSC address\n    address payable public owner;      //The owner address\n    uint256 public state;              //online?close\n    uint256 public skill;              //require of skill\n    address[] public Set_work;         //Set of workers\n    address[] public Set_prework;      //Set of worker's prework\n    address[] public Set_verify;       //Set of verify's address\n    uint256[] public now_flag;         //Set of worker online\n    uint256[] public update_flag;      //Set of update flag,change by worker,block.number\n    uint256[] public verify_flag;      //Set of verify flag,change by verifyer\n    uint256[] public require_res;      //require verify result for each worker\n    uint256[] public real_res;         //real verify result for each worker\n    uint256 public Dm;                //Data module\n    int256  public Trust;             //require of trust\n    int256  public reward_trust;      //reward trust value\n    int256  public M;                 //reward coin value\n    uint256 public time_ddl;          //time of upload result deadline\n    uint256 public time_pddl;         //time of payment result deadline\n    uint256 public count;             //need number of workers\n    uint256 public ccount;            //current number of workers\n    string  public addr_data;         //read data IP\n    string  public addr_updata;       //updata data IP \n    string  public fun_verify;        //verify function\n    uint256 public complete_count;    //current complete work number\n    uint256 public stand;             //count of verify finish\n    int256  public coin;              //This contract coin\n    address payable public paytest;\n    \n    //constructor\n    constructor() public payable{\n        state = 0;\n        skill = 10;                   //test skill set 10\n        Dm = 0;\n        Trust = 10;                   //test trust set 10\n        reward_trust = 10;\n        M = 10;\n        time_ddl = 100;\n        time_pddl = 100;\n        count = 10;\n        ccount = 0;\n        complete_count = 0;\n        stand  = 0;\n        coin = 1000;\n        addr_data = \"127.0.0.1\";     //default IP \n        addr_updata = \"192.168.0.1\"; //default IP\n        owner = msg.sender;\n        //thistcsc = address(this);\n        thistcsc = address(uint160(address(this)));   //for tuffle\n    }\n    //init\n    function init_tcsc(uint256 index) public returns(uint256){   //after constructor, init this tcsc \n        Set_work    = new address[](index);\n        Set_prework = new address[](index);\n        Set_verify  = new address[](index);\n        verify_flag = new uint256[](index);\n        update_flag = new uint256[](index);\n        require_res = new uint256[](index);\n        real_res    = new uint256[](index);\n        \n        for(uint256 i = 0; i < index;i++ ){\n            verify_flag[i] = 0;\n            update_flag[i] = 0;\n            require_res[i] = 0;\n            real_res[i]    = 0;\n        }\n        count = index;\n        return 0;\n    }\n    //set require res for task  owner\n    function init_requireres(uint256 index,uint256 res) private returns(uint256){\n        require_res[index] = res;\n        return 0;\n    }\n    //set work information\n    function set_Dm(uint256 newdm) public returns (uint256){\n        Dm = newdm;\n        return 0;\n    }\n    //worker get work\n    function Getwork_task(address payable user) payable public returns(uint256){\n        \n        uint256 res = check_condition(user);  //check require\n        address temp = UCSC(user).get_prework();\n        \n        if(res == 0){\n              Set_work[ccount]    = user;\n              Set_prework[ccount] = temp;\n              ccount++;\n        }else{\n            return 1;\n        }\n        uint256 result = ccount-1;\n        \n        return result;\n    }\n    //check task require\n    function check_condition(address payable addr) public returns(uint256){\n        uint256 test1 = UCSC(addr).get_skill();\n        int256 test2 = UCSC(addr).get_trust();\n        \n        if(ccount <= count){           //check the number of worker\n            //work number engough\n        }else{\n            return 1;\n        }\n        \n        if(test1 >= skill){             //check skill level require\n            //pass\n        }else{\n            return 2;\n        }\n        \n        if(test2 >= Trust){            //check trust level require\n            //pass\n        }else{\n            return 2;\n        }\n        return 0;\n        \n    }\n    //upload data after worker finish task\n    function Upload_by_ucsc(address addr) public returns(int256){\n        int256 res = verify_id(addr);\n        uint256 resindex = uint256(res);\n        if(res >= 0){\n            update_flag[resindex] = block.number;\n            verify_flag[resindex] = 1;\n        }else{\n            return -1;\n        }\n        \n        return 0;\n    }\n    //upload data after worker_dccsc finish task\n    function Upload_by_dccsc(address payable addr) public returns(int256){\n        address payable addr  = address(uint160(DCCSC(addr).get_oucscaddr()));\n        int256 res = verify_id(addr);\n        uint256 resindex = uint256(res);\n        if(res >= 0){\n            update_flag[resindex] = block.number;       //different flag \n            verify_flag[resindex] = 1;   \n        }else{\n            return -1;\n        }\n        \n        return 0;\n    }\n    //check id \n    function verify_id(address addr) public returns(int256){\n        for(uint256 i = 0;i < count;i++){\n            if(Set_work[i] == addr){\n                return int256(i);\n            }else{\n                return -1;           // set 9: wrong id\n            }\n        }\n        return -1;\n    }\n    //verify data using open fun by miner or other worker\n    function verify_data_by_Third(address addr,uint256 index) public returns(int256){\n        \n        if(verify_flag[index] == 1){\n            Set_verify[index] = addr;\n            verify_flag[index] = 3;\n        }\n        return 0;\n    }\n    //verifyer upload the result\n    function verify_uploadres_by_Third(address addr,uint256 index,uint256 res) public returns(int256){\n        int256 checkid = verify_vid(addr);\n        if((checkid >= 0) && (index <= count)){\n            stand++;\n            real_res[index] = res;\n            Payment_Task();\n        }\n        return 0;\n        \n    }\n    //check verify id \n    function verify_vid(address addr) public returns(int256){\n        for(uint256 i = 0;i < count;i++){\n            if(Set_verify[i] == addr){\n                return int256(i);\n            }else{\n                return -1;           // set 9: wrong id\n            }\n        }\n        return -1;\n    }\n    \n    //get work information\n    function get_addr_from()public returns(string memory){\n        return addr_data;\n    }\n    function get_addr_upload()public returns(string memory){\n        return addr_updata;\n    }\n    function get_time_ddl()public returns(uint256){\n        return time_ddl;\n    }\n    function get_time_pddl()public returns(uint256){\n        return time_pddl;\n    }\n    //pay ment \n    function Payment_Task() payable public returns(uint256){\n        \n        uint256 flag  = check_complete();\n        if(flag == 1){\n            for(uint256 i = 0; i < count;i++){\n                if((real_res[i] >= require_res[i]) && (update_flag[i] <=time_ddl)){\n                    paytest = address(uint160(Set_work[i]));\n                    UCSC(paytest).pay_ment_by_other(thistcsc,reward_trust,M);\n                    //paytest.transfer(5*10**18);\n                }\n                if((real_res[i] < require_res[i])||(update_flag[i] > time_ddl)){\n                    paytest = address(uint160(Set_work[i]));\n                    UCSC(paytest).pay_ment_by_other(thistcsc,-reward_trust,-M);\n                }\n            }\n        }\n        if(flag == 2){\n            for(uint256 i = 0; i < count;i++){\n                paytest = address(uint160(Set_work[i]));\n                UCSC(paytest).pay_ment_by_other(thistcsc,reward_trust,M);\n                paytest.transfer(5*10**18);\n            }\n        }\n        state = 1;     //after payment, close this task\n        \n        return 0;\n    }\n    //check the task finish wether or not \n    function check_complete() public returns(uint256){\n        uint256 t = block.number;\n        if((stand == count) && (t <= time_ddl)){\n            return 1;       //all data verify finish,in paytime ddl\n        }\n        \n        if(t > time_pddl){\n            return 2;        //task pay out of time, task fail \n        }\n        return 0;           //test set 1\n    }\n\n    //return count;\n    function get_count() public returns(uint256){\n        return count;\n    }\n\n    //create a TCSC for testing Pay_ment();\n    function init_tcsc_ideal(uint256 temp) public returns(uint256){\n    \tinit_tcsc(temp);\n        stand = temp;\n        return 0;\n    }     \n\n    function init_ideal_evn(address payable addr) public returns(uint256){\n        for(uint256 index = 0;index < count;index++){\n            Set_work[index]    = addr;\n            real_res[index]    = 100;\n            update_flag[index] = 0;\n\t}\n        return 0;\n    }\n\n\n\n    fallback() external payable{}\n \n    \n}\n",
  "sourcePath": "/home/zmr/YQL_AWS/contracts/TCSC.sol",
  "compiler": {
    "name": "solc",
    "version": "0.6.7+commit.b8d736ae.Emscripten.clang"
  },
  "schemaVersion": "3.2.1",
  "updatedAt": "2020-07-09T05:14:30.693Z",
  "networkType": "ethereum",
  "devdoc": {
    "methods": {}
  },
  "userdoc": {
    "methods": {}
  }
}