{
  "contractName": "UCSC",
  "abi": [
    {
      "inputs": [],
      "stateMutability": "payable",
      "type": "constructor",
      "payable": true
    },
    {
      "stateMutability": "payable",
      "type": "fallback",
      "payable": true
    },
    {
      "inputs": [],
      "name": "Coin",
      "outputs": [
        {
          "internalType": "int256",
          "name": "",
          "type": "int256"
        }
      ],
      "stateMutability": "view",
      "type": "function",
      "constant": true
    },
    {
      "inputs": [],
      "name": "Coin_eth",
      "outputs": [
        {
          "internalType": "uint256",
          "name": "",
          "type": "uint256"
        }
      ],
      "stateMutability": "view",
      "type": "function",
      "constant": true
    },
    {
      "inputs": [],
      "name": "Trust",
      "outputs": [
        {
          "internalType": "int256",
          "name": "",
          "type": "int256"
        }
      ],
      "stateMutability": "view",
      "type": "function",
      "constant": true
    },
    {
      "inputs": [],
      "name": "Um",
      "outputs": [
        {
          "internalType": "uint256",
          "name": "",
          "type": "uint256"
        }
      ],
      "stateMutability": "view",
      "type": "function",
      "constant": true
    },
    {
      "inputs": [],
      "name": "addr_dccsc",
      "outputs": [
        {
          "internalType": "address payable",
          "name": "",
          "type": "address"
        }
      ],
      "stateMutability": "view",
      "type": "function",
      "constant": true
    },
    {
      "inputs": [],
      "name": "block_number",
      "outputs": [
        {
          "internalType": "uint256",
          "name": "",
          "type": "uint256"
        }
      ],
      "stateMutability": "view",
      "type": "function",
      "constant": true
    },
    {
      "inputs": [],
      "name": "flag_dccsc",
      "outputs": [
        {
          "internalType": "uint256",
          "name": "",
          "type": "uint256"
        }
      ],
      "stateMutability": "view",
      "type": "function",
      "constant": true
    },
    {
      "inputs": [],
      "name": "owner",
      "outputs": [
        {
          "internalType": "address payable",
          "name": "",
          "type": "address"
        }
      ],
      "stateMutability": "view",
      "type": "function",
      "constant": true
    },
    {
      "inputs": [],
      "name": "pre_work",
      "outputs": [
        {
          "internalType": "address",
          "name": "",
          "type": "address"
        }
      ],
      "stateMutability": "view",
      "type": "function",
      "constant": true
    },
    {
      "inputs": [],
      "name": "skill",
      "outputs": [
        {
          "internalType": "uint256",
          "name": "",
          "type": "uint256"
        }
      ],
      "stateMutability": "view",
      "type": "function",
      "constant": true
    },
    {
      "inputs": [],
      "name": "state",
      "outputs": [
        {
          "internalType": "uint256",
          "name": "",
          "type": "uint256"
        }
      ],
      "stateMutability": "view",
      "type": "function",
      "constant": true
    },
    {
      "inputs": [],
      "name": "thisucsc",
      "outputs": [
        {
          "internalType": "address payable",
          "name": "",
          "type": "address"
        }
      ],
      "stateMutability": "view",
      "type": "function",
      "constant": true
    },
    {
      "inputs": [],
      "name": "getblocknum",
      "outputs": [
        {
          "internalType": "uint256",
          "name": "",
          "type": "uint256"
        }
      ],
      "stateMutability": "nonpayable",
      "type": "function"
    },
    {
      "inputs": [
        {
          "internalType": "address",
          "name": "temp_task",
          "type": "address"
        },
        {
          "internalType": "int256",
          "name": "temp_trust",
          "type": "int256"
        },
        {
          "internalType": "int256",
          "name": "temp_coin",
          "type": "int256"
        }
      ],
      "name": "pay_ment_by_other",
      "outputs": [
        {
          "internalType": "uint256",
          "name": "",
          "type": "uint256"
        }
      ],
      "stateMutability": "payable",
      "type": "function",
      "payable": true
    },
    {
      "inputs": [
        {
          "internalType": "address",
          "name": "addr",
          "type": "address"
        }
      ],
      "name": "set_prework",
      "outputs": [
        {
          "internalType": "uint256",
          "name": "",
          "type": "uint256"
        }
      ],
      "stateMutability": "nonpayable",
      "type": "function"
    },
    {
      "inputs": [
        {
          "internalType": "int256",
          "name": "temp",
          "type": "int256"
        }
      ],
      "name": "set_trust",
      "outputs": [
        {
          "internalType": "uint256",
          "name": "",
          "type": "uint256"
        }
      ],
      "stateMutability": "nonpayable",
      "type": "function"
    },
    {
      "inputs": [
        {
          "internalType": "int256",
          "name": "temp",
          "type": "int256"
        }
      ],
      "name": "set_coin",
      "outputs": [
        {
          "internalType": "uint256",
          "name": "",
          "type": "uint256"
        }
      ],
      "stateMutability": "nonpayable",
      "type": "function"
    },
    {
      "inputs": [],
      "name": "get_skill",
      "outputs": [
        {
          "internalType": "uint256",
          "name": "",
          "type": "uint256"
        }
      ],
      "stateMutability": "nonpayable",
      "type": "function"
    },
    {
      "inputs": [],
      "name": "get_state",
      "outputs": [
        {
          "internalType": "uint256",
          "name": "",
          "type": "uint256"
        }
      ],
      "stateMutability": "nonpayable",
      "type": "function"
    },
    {
      "inputs": [],
      "name": "get_trust",
      "outputs": [
        {
          "internalType": "int256",
          "name": "",
          "type": "int256"
        }
      ],
      "stateMutability": "nonpayable",
      "type": "function"
    },
    {
      "inputs": [],
      "name": "get_prework",
      "outputs": [
        {
          "internalType": "address",
          "name": "",
          "type": "address"
        }
      ],
      "stateMutability": "nonpayable",
      "type": "function"
    },
    {
      "inputs": [
        {
          "internalType": "uint256",
          "name": "temp_state",
          "type": "uint256"
        }
      ],
      "name": "set_state",
      "outputs": [
        {
          "internalType": "uint256",
          "name": "",
          "type": "uint256"
        }
      ],
      "stateMutability": "nonpayable",
      "type": "function"
    },
    {
      "inputs": [
        {
          "internalType": "uint256",
          "name": "temp_UM",
          "type": "uint256"
        }
      ],
      "name": "set_UM",
      "outputs": [
        {
          "internalType": "uint256",
          "name": "",
          "type": "uint256"
        }
      ],
      "stateMutability": "nonpayable",
      "type": "function"
    },
    {
      "inputs": [
        {
          "internalType": "address payable",
          "name": "addr",
          "type": "address"
        }
      ],
      "name": "svalue",
      "outputs": [],
      "stateMutability": "payable",
      "type": "function",
      "payable": true
    },
    {
      "inputs": [
        {
          "internalType": "address payable",
          "name": "addr",
          "type": "address"
        }
      ],
      "name": "getblance",
      "outputs": [],
      "stateMutability": "payable",
      "type": "function",
      "payable": true
    },
    {
      "inputs": [
        {
          "internalType": "address payable",
          "name": "addr",
          "type": "address"
        }
      ],
      "name": "add_dccsc",
      "outputs": [
        {
          "internalType": "uint256",
          "name": "",
          "type": "uint256"
        }
      ],
      "stateMutability": "payable",
      "type": "function",
      "payable": true
    },
    {
      "inputs": [],
      "name": "pay_for_dccsc",
      "outputs": [
        {
          "internalType": "uint256",
          "name": "",
          "type": "uint256"
        }
      ],
      "stateMutability": "payable",
      "type": "function",
      "payable": true
    }
  ],
  "bytecode": "0x60806040526000600281905550603260038190555060006005819055506032600681905550600060078190555060006008819055506000600a8190555033600160006101000a81548173ffffffffffffffffffffffffffffffffffffffff021916908373ffffffffffffffffffffffffffffffffffffffff160217905550306000806101000a81548173ffffffffffffffffffffffffffffffffffffffff021916908373ffffffffffffffffffffffffffffffffffffffff160217905550610f89806100cc6000396000f3fe6080604052600436106101a05760003560e01c80637fcc895e116100ec5780639c76c99c1161008a578063af26e99f11610064578063af26e99f14610776578063c19d93fb14610794578063e3ba92a9146107bf578063ed9e8da31461080e576101a1565b80639c76c99c146106b4578063a77b2e37146106df578063a77d236d1461070a576101a1565b80638da5cb5b116100c65780638da5cb5b1461059757806396c8d9b9146105ee57806396db3b0a146106325780639b1c2aca1461065d576101a1565b80637fcc895e146104ce57806386b301ad1461051d57806388b87c2b14610548576101a1565b806344c7ee45116101595780636119d591116101335780636119d591146103bc578063634129ee146104215780636fcb6dc61461044c5780637140de6714610477576101a1565b806344c7ee45146102d257806345c056c5146103295780635fcc52ab1461036d576101a1565b8063164c9bf0146101a35780631d302fdd146101ce57806325a58b56146101f9578063294062311461022457806331ba64931461024f5780633f760699146102a7576101a1565b5b005b3480156101af57600080fd5b506101b8610865565b6040518082815260200191505060405180910390f35b3480156101da57600080fd5b506101e361086b565b6040518082815260200191505060405180910390f35b34801561020557600080fd5b5061020e610871565b6040518082815260200191505060405180910390f35b34801561023057600080fd5b50610239610877565b6040518082815260200191505060405180910390f35b6102916004803603602081101561026557600080fd5b81019080803573ffffffffffffffffffffffffffffffffffffffff16906020019092919050505061087d565b6040518082815260200191505060405180910390f35b3480156102b357600080fd5b506102bc6108d1565b6040518082815260200191505060405180910390f35b3480156102de57600080fd5b506102e76108d7565b604051808273ffffffffffffffffffffffffffffffffffffffff1673ffffffffffffffffffffffffffffffffffffffff16815260200191505060405180910390f35b61036b6004803603602081101561033f57600080fd5b81019080803573ffffffffffffffffffffffffffffffffffffffff169060200190929190505050610901565b005b34801561037957600080fd5b506103a66004803603602081101561039057600080fd5b8101908080359060200190929190505050610922565b6040518082815260200191505060405180910390f35b3480156103c857600080fd5b5061040b600480360360208110156103df57600080fd5b81019080803573ffffffffffffffffffffffffffffffffffffffff169060200190929190505050610934565b6040518082815260200191505060405180910390f35b34801561042d57600080fd5b50610436610980565b6040518082815260200191505060405180910390f35b34801561045857600080fd5b5061046161098a565b6040518082815260200191505060405180910390f35b34801561048357600080fd5b5061048c610990565b604051808273ffffffffffffffffffffffffffffffffffffffff1673ffffffffffffffffffffffffffffffffffffffff16815260200191505060405180910390f35b3480156104da57600080fd5b50610507600480360360208110156104f157600080fd5b81019080803590602001909291905050506109b5565b6040518082815260200191505060405180910390f35b34801561052957600080fd5b50610532610a26565b6040518082815260200191505060405180910390f35b34801561055457600080fd5b506105816004803603602081101561056b57600080fd5b8101908080359060200190929190505050610a30565b6040518082815260200191505060405180910390f35b3480156105a357600080fd5b506105ac610aa1565b604051808273ffffffffffffffffffffffffffffffffffffffff1673ffffffffffffffffffffffffffffffffffffffff16815260200191505060405180910390f35b6106306004803603602081101561060457600080fd5b81019080803573ffffffffffffffffffffffffffffffffffffffff169060200190929190505050610ac7565b005b34801561063e57600080fd5b50610647610b13565b6040518082815260200191505060405180910390f35b34801561066957600080fd5b50610672610b1d565b604051808273ffffffffffffffffffffffffffffffffffffffff1673ffffffffffffffffffffffffffffffffffffffff16815260200191505060405180910390f35b3480156106c057600080fd5b506106c9610b43565b6040518082815260200191505060405180910390f35b3480156106eb57600080fd5b506106f4610b53565b6040518082815260200191505060405180910390f35b6107606004803603606081101561072057600080fd5b81019080803573ffffffffffffffffffffffffffffffffffffffff1690602001909291908035906020019092919080359060200190929190505050610b59565b6040518082815260200191505060405180910390f35b61077e610b8d565b6040518082815260200191505060405180910390f35b3480156107a057600080fd5b506107a9610f15565b6040518082815260200191505060405180910390f35b3480156107cb57600080fd5b506107f8600480360360208110156107e257600080fd5b8101908080359060200190929190505050610f1b565b6040518082815260200191505060405180910390f35b34801561081a57600080fd5b50610823610f2d565b604051808273ffffffffffffffffffffffffffffffffffffffff1673ffffffffffffffffffffffffffffffffffffffff16815260200191505060405180910390f35b60065481565b60055481565b60095481565b600a5481565b60006001600a8190555081600b60006101000a81548173ffffffffffffffffffffffffffffffffffffffff021916908373ffffffffffffffffffffffffffffffffffffffff16021790555060009050919050565b60085481565b6000600460009054906101000a900473ffffffffffffffffffffffffffffffffffffffff16905090565b8073ffffffffffffffffffffffffffffffffffffffff163160088190555050565b60008160028190555060009050919050565b600081600460006101000a81548173ffffffffffffffffffffffffffffffffffffffff021916908373ffffffffffffffffffffffffffffffffffffffff16021790555060009050919050565b6000600654905090565b60035481565b6000809054906101000a900473ffffffffffffffffffffffffffffffffffffffff1681565b6000600160009054906101000a900473ffffffffffffffffffffffffffffffffffffffff1673ffffffffffffffffffffffffffffffffffffffff163373ffffffffffffffffffffffffffffffffffffffff1614610a1d57816007600082825401925050819055505b60009050919050565b6000600254905090565b6000600160009054906101000a900473ffffffffffffffffffffffffffffffffffffffff1673ffffffffffffffffffffffffffffffffffffffff163373ffffffffffffffffffffffffffffffffffffffff1614610a9857816006600082825401925050819055505b60009050919050565b600160009054906101000a900473ffffffffffffffffffffffffffffffffffffffff1681565b8073ffffffffffffffffffffffffffffffffffffffff166108fc6127109081150290604051600060405180830381858888f19350505050158015610b0f573d6000803e3d6000fd5b5050565b6000600354905090565b600b60009054906101000a900473ffffffffffffffffffffffffffffffffffffffff1681565b6000436009819055506000905090565b60075481565b6000610b6484610934565b50610b6e83610a30565b50610b78826109b5565b50610b81610b8d565b50600090509392505050565b60006001600a541415610f06576000600b60009054906101000a900473ffffffffffffffffffffffffffffffffffffffff1673ffffffffffffffffffffffffffffffffffffffff1663daadc3716040518163ffffffff1660e01b8152600401602060405180830381600087803b158015610c0657600080fd5b505af1158015610c1a573d6000803e3d6000fd5b505050506040513d6020811015610c3057600080fd5b810190808051906020019092919050505090506000600b60009054906101000a900473ffffffffffffffffffffffffffffffffffffffff1673ffffffffffffffffffffffffffffffffffffffff166336bebcd06040518163ffffffff1660e01b8152600401602060405180830381600087803b158015610caf57600080fd5b505af1158015610cc3573d6000803e3d6000fd5b505050506040513d6020811015610cd957600080fd5b810190808051906020019092919050505090506000600b60009054906101000a900473ffffffffffffffffffffffffffffffffffffffff1673ffffffffffffffffffffffffffffffffffffffff1663ba1d423c6040518163ffffffff1660e01b8152600401602060405180830381600087803b158015610d5857600080fd5b505af1158015610d6c573d6000803e3d6000fd5b505050506040513d6020811015610d8257600080fd5b810190808051906020019092919050505090508073ffffffffffffffffffffffffffffffffffffffff166388b87c2b846040518263ffffffff1660e01b815260040180828152602001915050602060405180830381600087803b158015610de857600080fd5b505af1158015610dfc573d6000803e3d6000fd5b505050506040513d6020811015610e1257600080fd5b8101908080519060200190929190505050508073ffffffffffffffffffffffffffffffffffffffff16637fcc895e836040518263ffffffff1660e01b815260040180828152602001915050602060405180830381600087803b158015610e7757600080fd5b505af1158015610e8b573d6000803e3d6000fd5b505050506040513d6020811015610ea157600080fd5b8101908080519060200190929190505050508073ffffffffffffffffffffffffffffffffffffffff166108fc674563918244f400009081150290604051600060405180830381858888f19350505050158015610f01573d6000803e3d6000fd5b505050505b6000600a819055506000905090565b60025481565b60008160058190555060009050919050565b600460009054906101000a900473ffffffffffffffffffffffffffffffffffffffff168156fea26469706673582212203214b5444d337ff9456c40f1d538e556e7ad2491dfc5791f2aa202e34932e63764736f6c63430006070033",
  "immutableReferences": {},
  "source": "pragma solidity >=0.4.0 <0.7.0;\nimport './DCCSC.sol';\n\ncontract UCSC{\n    address payable public thisucsc;     //address of this ucsc contract\n    address payable public owner;        //owner address of this UCSC contract\n    uint256 public state;                //online ? close\n    uint256 public skill;                //level of user skill\n    address public pre_work;             //previous work DCCSC address\n    uint256 public Um;                   //active or passive\n    int256  public Trust;                //Value of Trust\n    int256  public Coin;                 //Coin  \n    uint256 public Coin_eth;             //Coin_eth\n    uint256 public block_number;\n    \n    uint256 public flag_dccsc;\n    address payable public addr_dccsc;\n    \n    constructor() public payable{       //construct function; set basic user info\n        state = 0;\n        skill = 50;                      //test set skill = 20\n        Um = 0;\n        Trust = 50;                      //test set trust = 20\n        Coin = 0;\n        Coin_eth = 0;\n        flag_dccsc = 0;                 //test set 1\n        owner = msg.sender;\n        thisucsc = address(uint160(address(this)));\n        \n    }\n    function getblocknum() public returns(uint256){\n        block_number = block.number;\n        return 0;\n    }\n   \n    function pay_ment_by_other(address temp_task,int256 temp_trust,int256 temp_coin) payable public returns(uint256){  //payment functionmethods\n            set_prework(temp_task);\n            set_trust(temp_trust);\n            set_coin(temp_coin);\n            pay_for_dccsc();\n            return 0;\n    }\n    function set_prework(address addr) public returns(uint256){   //set the previous work address\n            pre_work = addr;\n            return 0;\n    }\n    function set_trust(int256 temp) public returns(uint256){    //set trust just call by others\n            if(msg.sender != owner){\n                Trust += temp; \n            }\n            return 0;\n    }\n    function set_coin(int256 temp) public returns(uint256){    //transfer coin just call by others\n            if(msg.sender != owner){\n                Coin += temp; \n            }\n            return 0;\n    }\n    function get_skill()public  returns(uint256){               //return current skill\n            return skill;\n    }\n    function get_state()public  returns(uint256){              //return current state\n            return state;\n    }\n    function get_trust()public  returns(int256){               //return current trust\n            return Trust;\n    }\n    function get_prework()public returns(address){            //return previous work address\n            return pre_work;\n    }\n    \n    function set_state(uint256 temp_state)public returns(uint256){\n            state = temp_state;\n            return 0;\n    }\n    function set_UM(uint256 temp_UM)public returns(uint256){\n            Um = temp_UM;\n            return 0;\n    }\n    \n    function svalue(address payable addr)public payable{\n        \n        addr.transfer(10000);\n    }\n    \n    function getblance(address payable addr)public payable{\n        Coin_eth = addr.balance;\n    }\n    //add a DCCSC construct\n    function add_dccsc(address payable addr)public payable returns(uint256){\n        flag_dccsc = 1;\n        addr_dccsc = addr;\n        return 0;\n    }\n    \n    function pay_for_dccsc()public payable returns(uint256){\n        if(flag_dccsc == 1){\n            int256 ttrust =  DCCSC(addr_dccsc).get_rewardt();\n            int256 ccoin  =  DCCSC(addr_dccsc).get_rewardc();\n            address payable addr = address(uint160(DCCSC(addr_dccsc).get_ucscaddr()));\n            UCSC(addr).set_trust(ttrust);\n            UCSC(addr).set_coin(ccoin);\n            addr.transfer(5*10**18);\n        }\n        flag_dccsc = 0;\n        return 0;\n    }\n    \n    fallback() external payable{\n    }\n}\n",
  "sourcePath": "/home/zmr/YQL_AWS/contracts/UCSC.sol",
  "compiler": {
    "name": "solc",
    "version": "0.6.7+commit.b8d736ae.Emscripten.clang"
  },
  "schemaVersion": "3.2.1",
  "updatedAt": "2020-07-09T05:14:30.676Z",
  "networkType": "ethereum",
  "devdoc": {
    "methods": {}
  },
  "userdoc": {
    "methods": {}
  }
}